S01100004D324D5F536C6176652E73726563ED
S11300000C942A000C9447000C9447000C9447006D
S11300100C9447000C9447000C9447000C94E300A4
S11300200C9447000C9447000C9447000C94470030
S11300300C9447000C944A000C9447000C947300F1
S11300400C9447000C9447000C9447000C94470010
S11300500C94470011241FBECFE5D8E0DEBFCDBF0E
S113006010E0A0E6B0E0E0ECF3E002C005900D92F1
S1130070A436B107D9F720E0A4E6B0E001C01D9290
S1130080A13CB207E1F70E9449000C94DE010C94F4
S11300900000FFCF1F920F920FB60F9211242F93DF
S11300A03F934F935F936F937F938F939F93AF93FC
S11300B0BF93EF93FF93E0916600F0916700309750
S11300C009F00995FF91EF91BF91AF919F918F91A5
S11300D07F916F915F914F913F912F910F900FBE40
S11300E00F901F9018951F920F920FB60F92112424
S11300F02F933F934F935F936F937F938F939F932C
S1130100AF93BF93EF93FF93E0916400F091650088
S1130110309709F00995FF91EF91BF91AF919F91AD
S11301208F917F916F915F914F913F912F910F909C
S11301300FBE0F901F901895CF93DF939C01FB0186
S1130140DC011196CD91DC911297D583C4838E8105
S11301509F81978386838E819F81DC0115967C9392
S11301606E9314977F836E8333872287F90180818E
S11301708F5F8083DF91CF910895CF93DF93FC014C
S1130180A285B385C481D581868197819F838E831F
S1130190C681D781848195819D838C8311968D91AD
S11301A09C911297E817F90731F48681978112968A
S11301B09C938E931197138612868C9181508C9305
S11301C0DF91CF9108951F920F920FB60F921124D1
S11301D02F933F934F935F936F937F938F939F934B
S11301E0AF93BF93EF93FF930E943101FF91EF917F
S11301F0BF91AF919F918F917F916F915F914F913B
S11302003F912F910F900FBE0F901F901895E09182
S11302107200F0917300808181110CC08FEF9FEF09
S1130220DC018093600090936100A0936200B0931E
S113023063000895E0917200F09173000780F085E7
S1130240E02D0084F185E02D82819381A481B58124
S11302508093600090936100A0936200B093630068
S11302600895CF92DF92EF92FF920F931F93CF9353
S1130270DF9380916800811192C080916C0090910D
S11302806D00A0916E00B0916F000196A11DB11D8B
S113029080936C0090936D00A0936E00B0936F00F8
S11302A0C0906C00D0906D00E0906E00F0906F00F4
S11302B0C114D104E104F104B9F480917200909165
S11302C0730020917000309171003093730020937B
S11302D072009093710080937000809169008F5F29
S11302E0809369000E9407018091600090916100F1
S11302F0A0916200B0916300C816D906EA06FB0615
S113030008F452C0E0917200F09173008081811171
S11303100CC08FEF9FEFDC0180936000909361002D
S1130320A0936200B09363003FC0E0917200F0912B
S113033073000780F085E02DC085D1858A819B817B
S1130340AC81BD81C816D906EA06FB0648F4809341
S1130350600090936100A0936200B093630024C096
S11303608E010E5F1F4FC8010E94BD00888D998DBC
S1130370892B21F0CE010E960E94BD008A8D9091AA
S11303806B00981710F480936B002BE0829FC001E0
S11303901124B8018C589F4F0E949C00B3CF8091C8
S11303A06A008F5F80936A0080E0DF91CF911F9194
S11303B00F91FF90EF90DF90CF900895F894FFCFC6
S10703C0FFFFFFFF39
S9030000FC
