S01200004D324D5F4D61737465722E737265637B
S11300000C942A000C9447000C9447000C9447006D
S11300100C9447000C9447000C9447000C9438034C
S11300200C9447000C9447000C9447000C94470030
S11300300C9447000C941A010C9447000C9443014F
S11300400C9447000C9447000C9447000C94F10066
S11300500C94470011241FBECFE5D8E0DEBFCDBF0E
S113006010E0A0E6B0E0E2E2FEE002C005900D92EE
S1130070A237B107D9F725E0A2E7B0E001C01D928D
S1130080A831B207E1F70E9469000C940F070C94A1
S11300900000D1E0C0E061E083E10E94C900C63005
S11300A019F0CC2319F003C0D0E001C0D1E0D13065
S11300B011F4CF5F03C0D11101C0C15060E083E1EE
S11300C00E94C90068EE73E080E090E00E945E0642
S11300D0E2CF40E061E083E10E948B0040E061E018
S11300E084E10E948B00A12CB12CC12CD12C0F2EA9
S11300F0F2E1EF2EF5E0FF2EF02D01E020E030E0FC
S113010044E650E064E670E089E490E00E94700404
S11301100E941905FFCF8032B0F56230B0F542304D
S1130120B0F5E82FE695E695E695F0E0E759FF4F40
S1130130E081F0E0DF015E91982F977021E030E0DC
S1130140092E02C0220F331F0A94E2F7209570E0B3
S1130150092E02C0660F771F0A94E2F7352F322367
S1130160632B6C93308150E002C0440F551F9A9565
S1130170E2F72323422B4083E82FF0E0EE58FF4FB1
S113018081E08083089580E0089580E0089580E010
S11301900895E82FF0E0EE58FF4F90819130F9F484
S11301A0E82FE695E695E695F0E0E759FF4FE08104
S11301B0F0E09081877021E030E0082E02C0220F29
S11301C0331F0A94E2F770E002C0660F771F8A9526
S11301D0E2F720952923622B608381E0089580E073
S11301E008951F920F920FB60F9211242F933F93ED
S11301F04F935F936F937F938F939F93AF93BF932B
S1130200EF93FF93E0919200F0919300309709F0FF
S11302100995FF91EF91BF91AF919F918F917F913C
S11302206F915F914F913F912F910F900FBE0F905F
S11302301F9018951F920F920FB60F9211242F93AF
S11302403F934F935F936F937F938F939F93AF935A
S1130250BF93EF93FF93E0919600F091970030974E
S113026009F00995FF91EF91BF91AF919F918F9103
S11302707F916F915F914F913F912F910F900FBE9E
S11302800F901F9018951F920F920FB60F92112482
S11302902F933F934F935F936F937F938F939F938A
S11302A0AF93BF93EF93FF93E0919400F091950087
S11302B0309709F00995FF91EF91BF91AF919F910C
S11302C08F917F916F915F914F913F912F910F90FB
S11302D00FBE0F901F901895CF93DF93EC010E94EF
S11302E048058091980090919900892B31F48DE90B
S11302F090E0909399008093980020919A00309117
S11303009B00C9018C0F9D1F873E43E0940770F446
S11303102817390770F4C0919800D0919900C20F42
S1130320D31F90939B0080939A0005C0C0E0D0E057
S113033002C0C0E0D0E00E94FB05CE01DF91CF9166
S113034008950895FC010396928381834FEF5FEF34
S1130350BA01438354836583768390878783928726
S1130360818710820895FC01138612860895CF9325
S1130370DF939C01FB01DC011196CD91DC91129776
S1130380D583C4838E819F81978386838E819F8149
S1130390DC0115967C936E9314977F836E83338769
S11303A02287F90180818F5F8083DF91CF91089547
S11303B00F931F93CF93DF93EB01088119812A8157
S11303C03B810F3F4FEF14072407340721F4FC014E
S11303D0A185B28511C0DC01139601C0DF0114961A
S11303E0ED91FC91159740815181628173810417CD
S11303F015072607370790F71496ED91FC9115978A
S1130400FD83EC83D783C683BF83AE831596DC93C9
S1130410CE9314979B878A87FC0120812F5F2083CA
S1130420DF91CF911F910F910895CF93DF93FC013A
S1130430A285B385C481D581868197819F838E836C
S1130440C681D781848195819D838C8311968D91FA
S11304509C911297E817F90731F4868197811296D7
S11304609C938E931197138612868C9181508C9352
S1130470DF91CF9108951BBC8CE78ABD8BE08EBDC4
S113048089B7806189BF089531E1FC0130833197D8
S113049022E220833197A3E3A083319760833197CD
S11304A0708331971082319760E8608331971082AE
S11304B0319762E06083319763E06083319764E051
S11304C06083319765E06083319766E0608331979C
S11304D067E06083319768E06083319769E0608307
S11304E0319760E1608331973083319732E1308313
S11304F0319733E13083319734E13083319735E1FB
S11305003083319736E13083319737E13083319747
S113051038E13083319739E13083319730E23083E9
S1130520319731E2308331972083319723E220835E
S11305303197408331975083319726E22083319756
S113054027E22083319728E22083319729E2208310
S1130550319720E32083319721E320838697089500
S11305600E943B02A0910E05B0910F05CD91CDBF25
S1130570DD91DEBFFF91EF91DF91CF91BF91AF91FC
S11305809F918F917F916F915F914F913F912F91A7
S11305901F910F91FF90EF90DF90CF90BF90AF909D
S11305A09F908F907F906F905F904F903F902F908F
S11305B01F900F900FBE0F90089581E008950F9241
S11305C00FB6F8940F921F9211242F923F924F92DC
S11305D05F926F927F928F929F92AF92BF92CF92CF
S11305E0DF92EF92FF920F931F932F933F934F93BA
S11305F05F936F937F938F939F93AF93BF93CF93A7
S1130600DF93EF93FF93A0910E05B0910F050DB604
S11306100D920EB60D920E94C106A0910E05B091E6
S11306200F05CD91CDBFDD91DEBFFF91EF91DF913D
S1130630CF91BF91AF919F918F917F916F915F9176
S11306404F913F912F911F910F91FF90EF90DF9069
S1130650CF90BF90AF909F908F907F906F905F905E
S11306604F903F902F901F900F900FBE0F900895C2
S11306701F920F920FB60F9211242F933F934F9313
S11306805F936F937F938F939F93AF93BF93EF93F6
S1130690FF930E944E05FF91EF91BF91AF919F91FF
S11306A08F917F916F915F914F913F912F910F9017
S11306B00FBE0F901F901895E091A904F091AA0421
S11306C0808181110CC08FEF9FEFDC01809360006B
S11306D090936100A0936200B09363000895E09149
S11306E0A904F091AA040780F085E02D0084F18527
S11306F0E02D82819381A481B581809360009093E1
S11307006100A0936200B09363000895EF92FF929A
S11307100F931F93CF93DF937C01EB0183E390E06E
S11307200E946C018C01892B89F0209721F4C70168
S11307300E946C0101C0CE01F801948F838F892B34
S113074029F4C8010E94A10100E010E0C801DF9172
S1130750CF911F910F91FF90EF900895CF93DF9366
S1130760EC018B8D9C8D0E94A101CE010E94A10100
S1130770DF91CF9108951F93CF93DF93EC01142F52
S113078020E00FC0822F90E0FB01E80FF91F3081B9
S1130790DE01A80FB91F5D963C938081882319F070
S11307A02F5F243178F318AA173008F016E01A8F57
S11307B019AB1AAACE0102960E94B301CE010E967D
S11307C00E94B301DB87CA8787E090E0A0E0B0E035
S11307D0811B9109A109B1098E879F87A88BB98BC9
S11307E0DF8BCE8BDF91CF911F910895CF93C0E023
S11307F009C02BE0C29FC00111248F539B4F0E945C
S1130800A201CF5FC730A8F386EB94E00E94A20157
S11308108BEA94E00E94A2018CE994E00E94A20178
S113082081E994E00E94A20186EB94E09093AA04EB
S11308308093A9048BEA94E09093A8048093A7047E
S1130840CF910895CF92DF92EF92FF926B017C01DA
S1130850E0910E05F0910F05628373838483958381
S113086080918B0490918C04A0918D04B0918E049E
S1130870C816D906EA06FB0668F460910E05709165
S11308800F058091A7049091A8046E5F7F4F0E948A
S1130890D80121C060910E0570910F058091A904C3
S11308A09091AA046E5F7F4F0E94D80180916000EE
S11308B090916100A0916200B0916300C816D906BE
S11308C0EA06FB0640F4C0926000D0926100E09218
S11308D06200F0926300FF90EF90DF90CF90089554
S11308E02F923F924F925F927F928F929F92AF92FC
S11308F0BF92CF92DF92EF92FF920F931F93CF9309
S1130900DF9300D000D0CDB7DEB79A8389834B0143
S11309105C834B831901702EB6012501CA010E9424
S113092086035C01009709F463C0FC01C38CD48C7A
S11309308B819C810197C80ED91E0B811C81920169
S1130940472DB401C5010E94BB03A10169817A81CD
S1130950C6010E944402F50191838083E114F104ED
S113096019F0F701B182A0820FB6F8940F9280912A
S11309708F048F5F80938F0480910E0590910F05F3
S1130980892B59F4B0920F05A0920E0580918F0423
S1130990813091F40E94F6030FC080918904811183
S11309A00BC0E0910E05F0910F05828D781620F0B2
S11309B0B0920F05A0920E05809185048F5F8093FD
S11309C08504F501828D90918A04981710F4809320
S11309D08A04B5016E5F7F4FFBE08F9FC001112435
S11309E08F539B4F0E94B7010F900FBE81E001C04F
S11309F08FEF813041F490918904992321F0209163
S1130A000E0530910F050F900F900F900F90DF910E
S1130A10CF911F910F91FF90EF90DF90CF90BF90F7
S1130A20AF909F908F907F905F904F903F902F90CA
S1130A300895AF92BF92CF92DF92EF92FF920F93FD
S1130A40A12CB12CC12CD12CE12CF12C00E020E004
S1130A5030E045E550E06DE670E08CEB96E00E94F6
S1130A607004813069F4F8948093890410928B04A3
S1130A7010928C0410928D0410928E040E94B00285
S1130A800F91FF90EF90DF90CF90BF90AF900895BB
S1130A90809184048F5F809384040895CF92DF92C1
S1130AA0EF92FF920F931F93CF93DF93809184046F
S1130AB0811192C080918B0490918C04A0918D043B
S1130AC0B0918E040196A11DB11D80938B04909367
S1130AD08C04A0938D04B0938E04C0908B04D090AA
S1130AE08C04E0908D04F0908E04C114D104E104D0
S1130AF0F104B9F48091A9049091AA042091A70467
S1130B003091A8043093AA042093A9049093A804D4
S1130B108093A704809186048F5F809386040E944B
S1130B205C038091600090916100A0916200B0919B
S1130B306300C816D906EA06FB0608F452C0E09121
S1130B40A904F091AA04808181110CC08FEF9FEF5A
S1130B50DC018093600090936100A0936200B093E5
S1130B6063003FC0E091A904F091AA040780F085D6
S1130B70E02DC085D1858A819B81AC81BD81C81659
S1130B80D906EA06FB0648F480936000909361005E
S1130B90A0936200B093630024C08E010E5F1F4FC8
S1130BA0C8010E941502888D998D892B21F0CE01F0
S1130BB00E960E9415028A8D90918A04981710F45B
S1130BC080938A042BE0829FC0011124B8018F53C3
S1130BD09B4F0E94B701B3CF809188048F5F8093AD
S1130BE0880480E0DF91CF911F910F91FF90EF90E7
S1130BF0DF90CF9008950F931F93CF93DF930FB699
S1130C00F8940F928091840481508093840480919D
S1130C10840481114BC080918F0481112CC046C083
S1130C20E091A304F091A404C085D185CE010E9671
S1130C300E9415028E010E5F1F4FC8010E9415020B
S1130C408A8D90918A04981710F480938A042BE07B
S1130C50829FC0011124B8018F539B4F0E94B7019A
S1130C609A8DE0910E05F0910F05828D981718F07A
S1130C7081E08093870480919C048111D1CF80917D
S1130C80880481110DC010C00E944E05882319F0FC
S1130C9081E0809387048091880481508093880444
S1130CA0809188048111F0CF809187040F900FBE4A
S1130CB080E0DF91CF911F910F910895CF92DF9241
S1130CC0EF92FF926B017C01672B682B692BE1F09B
S1130CD00E94480580918B0490918C04A0918D040E
S1130CE0B0918E04C80ED91EEA1EFB1E80910E051B
S1130CF090910F0502960E941502C701B6010E9449
S1130D0022040E94FB0501C080E0811102C00E9400
S1130D10DF02FF90EF90DF90CF900895CF93DF93A1
S1130D2024C00E944805C09191040E94FB05CC2375
S1130D30E1F00FB6F8940F92E0919804F0919904C1
S1130D40C085D185CE0102960E94150280918F0440
S1130D50815080938F0480919004815080939004FB
S1130D600F900FBECE010E94AE03809190048111BA
S1130D70D8CFDF91CF9108950E948E060E94DF02A2
S1130D80FBCF80918404882321F081E08093870441
S1130D9008951092870405C080918A04815080933D
S1130DA08A04E0918A048BE0E89FF0011124EF5358
S1130DB0FB4F8081882381F380918A0490E04BE08B
S1130DC0489F9001499F300D1124D901AF53BB4F67
S1130DD01196ED91FC9112970480F581E02D129605
S1130DE0FC93EE9311972C533B4FE217F30729F42E
S1130DF024813581FD01328321832BE0289FF0017A
S1130E00299FF00D1124EF53FB4F0180F281E02D57
S1130E108085918590930F0580930E050895F8942D
S1050E20FFCFFE
S1130E22FFFFFFFF54657374003B38353249444C6D
S1050E32450075
S9030000FC
